{
  "_format": "hh-sol-artifact-1",
  "contractName": "BonFyr",
  "sourceName": "contracts/MyNFT.sol",
  "abi": [
    {
      "inputs": [],
      "stateMutability": "nonpayable",
      "type": "constructor"
    },
    {
      "anonymous": false,
      "inputs": [
        {
          "indexed": true,
          "internalType": "address",
          "name": "owner",
          "type": "address"
        },
        {
          "indexed": true,
          "internalType": "address",
          "name": "approved",
          "type": "address"
        },
        {
          "indexed": true,
          "internalType": "uint256",
          "name": "tokenId",
          "type": "uint256"
        }
      ],
      "name": "Approval",
      "type": "event"
    },
    {
      "anonymous": false,
      "inputs": [
        {
          "indexed": true,
          "internalType": "address",
          "name": "owner",
          "type": "address"
        },
        {
          "indexed": true,
          "internalType": "address",
          "name": "operator",
          "type": "address"
        },
        {
          "indexed": false,
          "internalType": "bool",
          "name": "approved",
          "type": "bool"
        }
      ],
      "name": "ApprovalForAll",
      "type": "event"
    },
    {
      "anonymous": false,
      "inputs": [
        {
          "indexed": true,
          "internalType": "address",
          "name": "previousOwner",
          "type": "address"
        },
        {
          "indexed": true,
          "internalType": "address",
          "name": "newOwner",
          "type": "address"
        }
      ],
      "name": "OwnershipTransferred",
      "type": "event"
    },
    {
      "anonymous": false,
      "inputs": [
        {
          "indexed": true,
          "internalType": "address",
          "name": "from",
          "type": "address"
        },
        {
          "indexed": true,
          "internalType": "address",
          "name": "to",
          "type": "address"
        },
        {
          "indexed": true,
          "internalType": "uint256",
          "name": "tokenId",
          "type": "uint256"
        }
      ],
      "name": "Transfer",
      "type": "event"
    },
    {
      "inputs": [
        {
          "internalType": "address",
          "name": "to",
          "type": "address"
        },
        {
          "internalType": "uint256",
          "name": "tokenId",
          "type": "uint256"
        }
      ],
      "name": "approve",
      "outputs": [],
      "stateMutability": "nonpayable",
      "type": "function"
    },
    {
      "inputs": [
        {
          "internalType": "address",
          "name": "owner",
          "type": "address"
        }
      ],
      "name": "balanceOf",
      "outputs": [
        {
          "internalType": "uint256",
          "name": "",
          "type": "uint256"
        }
      ],
      "stateMutability": "view",
      "type": "function"
    },
    {
      "inputs": [],
      "name": "count",
      "outputs": [
        {
          "internalType": "uint256",
          "name": "",
          "type": "uint256"
        }
      ],
      "stateMutability": "view",
      "type": "function"
    },
    {
      "inputs": [
        {
          "internalType": "uint256",
          "name": "tokenId",
          "type": "uint256"
        }
      ],
      "name": "getApproved",
      "outputs": [
        {
          "internalType": "address",
          "name": "",
          "type": "address"
        }
      ],
      "stateMutability": "view",
      "type": "function"
    },
    {
      "inputs": [
        {
          "internalType": "address",
          "name": "owner",
          "type": "address"
        },
        {
          "internalType": "address",
          "name": "operator",
          "type": "address"
        }
      ],
      "name": "isApprovedForAll",
      "outputs": [
        {
          "internalType": "bool",
          "name": "",
          "type": "bool"
        }
      ],
      "stateMutability": "view",
      "type": "function"
    },
    {
      "inputs": [
        {
          "internalType": "string",
          "name": "uri",
          "type": "string"
        }
      ],
      "name": "isContentOwned",
      "outputs": [
        {
          "internalType": "bool",
          "name": "",
          "type": "bool"
        }
      ],
      "stateMutability": "view",
      "type": "function"
    },
    {
      "inputs": [],
      "name": "name",
      "outputs": [
        {
          "internalType": "string",
          "name": "",
          "type": "string"
        }
      ],
      "stateMutability": "view",
      "type": "function"
    },
    {
      "inputs": [],
      "name": "owner",
      "outputs": [
        {
          "internalType": "address",
          "name": "",
          "type": "address"
        }
      ],
      "stateMutability": "view",
      "type": "function"
    },
    {
      "inputs": [
        {
          "internalType": "uint256",
          "name": "tokenId",
          "type": "uint256"
        }
      ],
      "name": "ownerOf",
      "outputs": [
        {
          "internalType": "address",
          "name": "",
          "type": "address"
        }
      ],
      "stateMutability": "view",
      "type": "function"
    },
    {
      "inputs": [
        {
          "internalType": "address",
          "name": "recipient",
          "type": "address"
        },
        {
          "internalType": "string",
          "name": "metadataURI",
          "type": "string"
        }
      ],
      "name": "payToMint",
      "outputs": [
        {
          "internalType": "uint256",
          "name": "",
          "type": "uint256"
        }
      ],
      "stateMutability": "payable",
      "type": "function"
    },
    {
      "inputs": [],
      "name": "renounceOwnership",
      "outputs": [],
      "stateMutability": "nonpayable",
      "type": "function"
    },
    {
      "inputs": [
        {
          "internalType": "address",
          "name": "to",
          "type": "address"
        },
        {
          "internalType": "string",
          "name": "uri",
          "type": "string"
        }
      ],
      "name": "safeMint",
      "outputs": [],
      "stateMutability": "nonpayable",
      "type": "function"
    },
    {
      "inputs": [
        {
          "internalType": "address",
          "name": "from",
          "type": "address"
        },
        {
          "internalType": "address",
          "name": "to",
          "type": "address"
        },
        {
          "internalType": "uint256",
          "name": "tokenId",
          "type": "uint256"
        }
      ],
      "name": "safeTransferFrom",
      "outputs": [],
      "stateMutability": "nonpayable",
      "type": "function"
    },
    {
      "inputs": [
        {
          "internalType": "address",
          "name": "from",
          "type": "address"
        },
        {
          "internalType": "address",
          "name": "to",
          "type": "address"
        },
        {
          "internalType": "uint256",
          "name": "tokenId",
          "type": "uint256"
        },
        {
          "internalType": "bytes",
          "name": "_data",
          "type": "bytes"
        }
      ],
      "name": "safeTransferFrom",
      "outputs": [],
      "stateMutability": "nonpayable",
      "type": "function"
    },
    {
      "inputs": [
        {
          "internalType": "address",
          "name": "operator",
          "type": "address"
        },
        {
          "internalType": "bool",
          "name": "approved",
          "type": "bool"
        }
      ],
      "name": "setApprovalForAll",
      "outputs": [],
      "stateMutability": "nonpayable",
      "type": "function"
    },
    {
      "inputs": [
        {
          "internalType": "bytes4",
          "name": "interfaceId",
          "type": "bytes4"
        }
      ],
      "name": "supportsInterface",
      "outputs": [
        {
          "internalType": "bool",
          "name": "",
          "type": "bool"
        }
      ],
      "stateMutability": "view",
      "type": "function"
    },
    {
      "inputs": [],
      "name": "symbol",
      "outputs": [
        {
          "internalType": "string",
          "name": "",
          "type": "string"
        }
      ],
      "stateMutability": "view",
      "type": "function"
    },
    {
      "inputs": [
        {
          "internalType": "uint256",
          "name": "tokenId",
          "type": "uint256"
        }
      ],
      "name": "tokenURI",
      "outputs": [
        {
          "internalType": "string",
          "name": "",
          "type": "string"
        }
      ],
      "stateMutability": "view",
      "type": "function"
    },
    {
      "inputs": [
        {
          "internalType": "address",
          "name": "from",
          "type": "address"
        },
        {
          "internalType": "address",
          "name": "to",
          "type": "address"
        },
        {
          "internalType": "uint256",
          "name": "tokenId",
          "type": "uint256"
        }
      ],
      "name": "transferFrom",
      "outputs": [],
      "stateMutability": "nonpayable",
      "type": "function"
    },
    {
      "inputs": [
        {
          "internalType": "address",
          "name": "newOwner",
          "type": "address"
        }
      ],
      "name": "transferOwnership",
      "outputs": [],
      "stateMutability": "nonpayable",
      "type": "function"
    }
  ],
  "bytecode": "0x60806040523480156200001157600080fd5b506040518060400160405280600681526020017f426f6e46797200000000000000000000000000000000000000000000000000008152506040518060400160405280600381526020017f4246520000000000000000000000000000000000000000000000000000000000815250816000908051906020019062000096929190620001a6565b508060019080519060200190620000af929190620001a6565b505050620000d2620000c6620000d860201b60201c565b620000e060201b60201c565b620002bb565b600033905090565b6000600760009054906101000a900473ffffffffffffffffffffffffffffffffffffffff16905081600760006101000a81548173ffffffffffffffffffffffffffffffffffffffff021916908373ffffffffffffffffffffffffffffffffffffffff1602179055508173ffffffffffffffffffffffffffffffffffffffff168173ffffffffffffffffffffffffffffffffffffffff167f8be0079c531659141344cd1fd0a4f28419497f9722a3daafe3b4186f6b6457e060405160405180910390a35050565b828054620001b49062000256565b90600052602060002090601f016020900481019282620001d8576000855562000224565b82601f10620001f357805160ff191683800117855562000224565b8280016001018555821562000224579182015b828111156200022357825182559160200191906001019062000206565b5b50905062000233919062000237565b5090565b5b808211156200025257600081600090555060010162000238565b5090565b600060028204905060018216806200026f57607f821691505b602082108114156200028657620002856200028c565b5b50919050565b7f4e487b7100000000000000000000000000000000000000000000000000000000600052602260045260246000fd5b61345b80620002cb6000396000f3fe60806040526004361061011f5760003560e01c8063715018a6116100a0578063b88d4fde11610064578063b88d4fde146103ec578063c87b56dd14610415578063d204c45e14610452578063e985e9c51461047b578063f2fde38b146104b85761011f565b8063715018a6146103195780638da5cb5b1461033057806395d89b411461035b5780639f1cabc614610386578063a22cb465146103c35761011f565b806323b872dd116100e757806323b872dd1461021d57806342842e0e14610246578063615fd9e21461026f5780636352211e1461029f57806370a08231146102dc5761011f565b806301ffc9a71461012457806306661abd1461016157806306fdde031461018c578063081812fc146101b7578063095ea7b3146101f4575b600080fd5b34801561013057600080fd5b5061014b600480360381019061014691906122da565b6104e1565b60405161015891906127c4565b60405180910390f35b34801561016d57600080fd5b506101766105c3565b6040516101839190612a81565b60405180910390f35b34801561019857600080fd5b506101a16105d4565b6040516101ae91906127df565b60405180910390f35b3480156101c357600080fd5b506101de60048036038101906101d9919061236d565b610666565b6040516101eb919061275d565b60405180910390f35b34801561020057600080fd5b5061021b6004803603810190610216919061229e565b6106eb565b005b34801561022957600080fd5b50610244600480360381019061023f9190612144565b610803565b005b34801561025257600080fd5b5061026d60048036038101906102689190612144565b610863565b005b6102896004803603810190610284919061224a565b610883565b6040516102969190612a81565b60405180910390f35b3480156102ab57600080fd5b506102c660048036038101906102c1919061236d565b610986565b6040516102d3919061275d565b60405180910390f35b3480156102e857600080fd5b5061030360048036038101906102fe91906120df565b610a38565b6040516103109190612a81565b60405180910390f35b34801561032557600080fd5b5061032e610af0565b005b34801561033c57600080fd5b50610345610b78565b604051610352919061275d565b60405180910390f35b34801561036757600080fd5b50610370610ba2565b60405161037d91906127df565b60405180910390f35b34801561039257600080fd5b506103ad60048036038101906103a8919061232c565b610c34565b6040516103ba91906127c4565b60405180910390f35b3480156103cf57600080fd5b506103ea60048036038101906103e5919061220e565b610c6f565b005b3480156103f857600080fd5b50610413600480360381019061040e9190612193565b610c85565b005b34801561042157600080fd5b5061043c6004803603810190610437919061236d565b610ce7565b60405161044991906127df565b60405180910390f35b34801561045e57600080fd5b506104796004803603810190610474919061224a565b610cf9565b005b34801561048757600080fd5b506104a2600480360381019061049d9190612108565b610da6565b6040516104af91906127c4565b60405180910390f35b3480156104c457600080fd5b506104df60048036038101906104da91906120df565b610e3a565b005b60007f80ac58cd000000000000000000000000000000000000000000000000000000007bffffffffffffffffffffffffffffffffffffffffffffffffffffffff1916827bffffffffffffffffffffffffffffffffffffffffffffffffffffffff191614806105ac57507f5b5e139f000000000000000000000000000000000000000000000000000000007bffffffffffffffffffffffffffffffffffffffffffffffffffffffff1916827bffffffffffffffffffffffffffffffffffffffffffffffffffffffff1916145b806105bc57506105bb82610f32565b5b9050919050565b60006105cf6008610f9c565b905090565b6060600080546105e390612cd7565b80601f016020809104026020016040519081016040528092919081815260200182805461060f90612cd7565b801561065c5780601f106106315761010080835404028352916020019161065c565b820191906000526020600020905b81548152906001019060200180831161063f57829003601f168201915b5050505050905090565b600061067182610faa565b6106b0576040517f08c379a00000000000000000000000000000000000000000000000000000000081526004016106a7906129a1565b60405180910390fd5b6004600083815260200190815260200160002060009054906101000a900473ffffffffffffffffffffffffffffffffffffffff169050919050565b60006106f682610986565b90508073ffffffffffffffffffffffffffffffffffffffff168373ffffffffffffffffffffffffffffffffffffffff161415610767576040517f08c379a000000000000000000000000000000000000000000000000000000000815260040161075e90612a21565b60405180910390fd5b8073ffffffffffffffffffffffffffffffffffffffff16610786611016565b73ffffffffffffffffffffffffffffffffffffffff1614806107b557506107b4816107af611016565b610da6565b5b6107f4576040517f08c379a00000000000000000000000000000000000000000000000000000000081526004016107eb906128e1565b60405180910390fd5b6107fe838361101e565b505050565b61081461080e611016565b826110d7565b610853576040517f08c379a000000000000000000000000000000000000000000000000000000000815260040161084a90612a41565b60405180910390fd5b61085e8383836111b5565b505050565b61087e83838360405180602001604052806000815250610c85565b505050565b600061088e82610c34565b156108ce576040517f08c379a00000000000000000000000000000000000000000000000000000000081526004016108c590612881565b60405180910390fd5b66b1a2bc2ec50000341015610918576040517f08c379a000000000000000000000000000000000000000000000000000000000815260040161090f90612a61565b60405180910390fd5b60006109246008610f9c565b90506109306008611411565b60016009846040516109429190612722565b908152602001604051809103902060006101000a81548160ff021916908360ff1602179055506109728482611427565b61097c81846115f5565b8091505092915050565b6000806002600084815260200190815260200160002060009054906101000a900473ffffffffffffffffffffffffffffffffffffffff169050600073ffffffffffffffffffffffffffffffffffffffff168173ffffffffffffffffffffffffffffffffffffffff161415610a2f576040517f08c379a0000000000000000000000000000000000000000000000000000000008152600401610a2690612921565b60405180910390fd5b80915050919050565b60008073ffffffffffffffffffffffffffffffffffffffff168273ffffffffffffffffffffffffffffffffffffffff161415610aa9576040517f08c379a0000000000000000000000000000000000000000000000000000000008152600401610aa090612901565b60405180910390fd5b600360008373ffffffffffffffffffffffffffffffffffffffff1673ffffffffffffffffffffffffffffffffffffffff168152602001908152602001600020549050919050565b610af8611016565b73ffffffffffffffffffffffffffffffffffffffff16610b16610b78565b73ffffffffffffffffffffffffffffffffffffffff1614610b6c576040517f08c379a0000000000000000000000000000000000000000000000000000000008152600401610b63906129c1565b60405180910390fd5b610b766000611669565b565b6000600760009054906101000a900473ffffffffffffffffffffffffffffffffffffffff16905090565b606060018054610bb190612cd7565b80601f0160208091040260200160405190810160405280929190818152602001828054610bdd90612cd7565b8015610c2a5780601f10610bff57610100808354040283529160200191610c2a565b820191906000526020600020905b815481529060010190602001808311610c0d57829003601f168201915b5050505050905090565b60006001600983604051610c489190612722565b908152602001604051809103902060009054906101000a900460ff1660ff16149050919050565b610c81610c7a611016565b838361172f565b5050565b610c96610c90611016565b836110d7565b610cd5576040517f08c379a0000000000000000000000000000000000000000000000000000000008152600401610ccc90612a41565b60405180910390fd5b610ce18484848461189c565b50505050565b6060610cf2826118f8565b9050919050565b610d01611016565b73ffffffffffffffffffffffffffffffffffffffff16610d1f610b78565b73ffffffffffffffffffffffffffffffffffffffff1614610d75576040517f08c379a0000000000000000000000000000000000000000000000000000000008152600401610d6c906129c1565b60405180910390fd5b6000610d816008610f9c565b9050610d8d6008611411565b610d978382611a4a565b610da181836115f5565b505050565b6000600560008473ffffffffffffffffffffffffffffffffffffffff1673ffffffffffffffffffffffffffffffffffffffff16815260200190815260200160002060008373ffffffffffffffffffffffffffffffffffffffff1673ffffffffffffffffffffffffffffffffffffffff16815260200190815260200160002060009054906101000a900460ff16905092915050565b610e42611016565b73ffffffffffffffffffffffffffffffffffffffff16610e60610b78565b73ffffffffffffffffffffffffffffffffffffffff1614610eb6576040517f08c379a0000000000000000000000000000000000000000000000000000000008152600401610ead906129c1565b60405180910390fd5b600073ffffffffffffffffffffffffffffffffffffffff168173ffffffffffffffffffffffffffffffffffffffff161415610f26576040517f08c379a0000000000000000000000000000000000000000000000000000000008152600401610f1d90612821565b60405180910390fd5b610f2f81611669565b50565b60007f01ffc9a7000000000000000000000000000000000000000000000000000000007bffffffffffffffffffffffffffffffffffffffffffffffffffffffff1916827bffffffffffffffffffffffffffffffffffffffffffffffffffffffff1916149050919050565b600081600001549050919050565b60008073ffffffffffffffffffffffffffffffffffffffff166002600084815260200190815260200160002060009054906101000a900473ffffffffffffffffffffffffffffffffffffffff1673ffffffffffffffffffffffffffffffffffffffff1614159050919050565b600033905090565b816004600083815260200190815260200160002060006101000a81548173ffffffffffffffffffffffffffffffffffffffff021916908373ffffffffffffffffffffffffffffffffffffffff160217905550808273ffffffffffffffffffffffffffffffffffffffff1661109183610986565b73ffffffffffffffffffffffffffffffffffffffff167f8c5be1e5ebec7d5bd14f71427d1e84f3dd0314c0f7b2291e5b200ac8c7c3b92560405160405180910390a45050565b60006110e282610faa565b611121576040517f08c379a0000000000000000000000000000000000000000000000000000000008152600401611118906128c1565b60405180910390fd5b600061112c83610986565b90508073ffffffffffffffffffffffffffffffffffffffff168473ffffffffffffffffffffffffffffffffffffffff16148061119b57508373ffffffffffffffffffffffffffffffffffffffff1661118384610666565b73ffffffffffffffffffffffffffffffffffffffff16145b806111ac57506111ab8185610da6565b5b91505092915050565b8273ffffffffffffffffffffffffffffffffffffffff166111d582610986565b73ffffffffffffffffffffffffffffffffffffffff161461122b576040517f08c379a0000000000000000000000000000000000000000000000000000000008152600401611222906129e1565b60405180910390fd5b600073ffffffffffffffffffffffffffffffffffffffff168273ffffffffffffffffffffffffffffffffffffffff16141561129b576040517f08c379a000000000000000000000000000000000000000000000000000000000815260040161129290612861565b60405180910390fd5b6112a6838383611a68565b6112b160008261101e565b6001600360008573ffffffffffffffffffffffffffffffffffffffff1673ffffffffffffffffffffffffffffffffffffffff16815260200190815260200160002060008282546113019190612bed565b925050819055506001600360008473ffffffffffffffffffffffffffffffffffffffff1673ffffffffffffffffffffffffffffffffffffffff16815260200190815260200160002060008282546113589190612b66565b92505081905550816002600083815260200190815260200160002060006101000a81548173ffffffffffffffffffffffffffffffffffffffff021916908373ffffffffffffffffffffffffffffffffffffffff160217905550808273ffffffffffffffffffffffffffffffffffffffff168473ffffffffffffffffffffffffffffffffffffffff167fddf252ad1be2c89b69c2b068fc378daa952ba7f163c4a11628f55a4df523b3ef60405160405180910390a4505050565b6001816000016000828254019250508190555050565b600073ffffffffffffffffffffffffffffffffffffffff168273ffffffffffffffffffffffffffffffffffffffff161415611497576040517f08c379a000000000000000000000000000000000000000000000000000000000815260040161148e90612961565b60405180910390fd5b6114a081610faa565b156114e0576040517f08c379a00000000000000000000000000000000000000000000000000000000081526004016114d790612841565b60405180910390fd5b6114ec60008383611a68565b6001600360008473ffffffffffffffffffffffffffffffffffffffff1673ffffffffffffffffffffffffffffffffffffffff168152602001908152602001600020600082825461153c9190612b66565b92505081905550816002600083815260200190815260200160002060006101000a81548173ffffffffffffffffffffffffffffffffffffffff021916908373ffffffffffffffffffffffffffffffffffffffff160217905550808273ffffffffffffffffffffffffffffffffffffffff16600073ffffffffffffffffffffffffffffffffffffffff167fddf252ad1be2c89b69c2b068fc378daa952ba7f163c4a11628f55a4df523b3ef60405160405180910390a45050565b6115fe82610faa565b61163d576040517f08c379a000000000000000000000000000000000000000000000000000000000815260040161163490612941565b60405180910390fd5b80600660008481526020019081526020016000209080519060200190611664929190611f03565b505050565b6000600760009054906101000a900473ffffffffffffffffffffffffffffffffffffffff16905081600760006101000a81548173ffffffffffffffffffffffffffffffffffffffff021916908373ffffffffffffffffffffffffffffffffffffffff1602179055508173ffffffffffffffffffffffffffffffffffffffff168173ffffffffffffffffffffffffffffffffffffffff167f8be0079c531659141344cd1fd0a4f28419497f9722a3daafe3b4186f6b6457e060405160405180910390a35050565b8173ffffffffffffffffffffffffffffffffffffffff168373ffffffffffffffffffffffffffffffffffffffff16141561179e576040517f08c379a0000000000000000000000000000000000000000000000000000000008152600401611795906128a1565b60405180910390fd5b80600560008573ffffffffffffffffffffffffffffffffffffffff1673ffffffffffffffffffffffffffffffffffffffff16815260200190815260200160002060008473ffffffffffffffffffffffffffffffffffffffff1673ffffffffffffffffffffffffffffffffffffffff16815260200190815260200160002060006101000a81548160ff0219169083151502179055508173ffffffffffffffffffffffffffffffffffffffff168373ffffffffffffffffffffffffffffffffffffffff167f17307eab39ab6107e8899845ad3d59bd9653f200f220920489ca2b5937696c318360405161188f91906127c4565b60405180910390a3505050565b6118a78484846111b5565b6118b384848484611a6d565b6118f2576040517f08c379a00000000000000000000000000000000000000000000000000000000081526004016118e990612801565b60405180910390fd5b50505050565b606061190382610faa565b611942576040517f08c379a000000000000000000000000000000000000000000000000000000000815260040161193990612981565b60405180910390fd5b600060066000848152602001908152602001600020805461196290612cd7565b80601f016020809104026020016040519081016040528092919081815260200182805461198e90612cd7565b80156119db5780601f106119b0576101008083540402835291602001916119db565b820191906000526020600020905b8154815290600101906020018083116119be57829003601f168201915b5050505050905060006119ec611c04565b9050600081511415611a02578192505050611a45565b600082511115611a37578082604051602001611a1f929190612739565b60405160208183030381529060405292505050611a45565b611a4084611c41565b925050505b919050565b611a64828260405180602001604052806000815250611ce8565b5050565b505050565b6000611a8e8473ffffffffffffffffffffffffffffffffffffffff16611d43565b15611bf7578373ffffffffffffffffffffffffffffffffffffffff1663150b7a02611ab7611016565b8786866040518563ffffffff1660e01b8152600401611ad99493929190612778565b602060405180830381600087803b158015611af357600080fd5b505af1925050508015611b2457506040513d601f19601f82011682018060405250810190611b219190612303565b60015b611ba7573d8060008114611b54576040519150601f19603f3d011682016040523d82523d6000602084013e611b59565b606091505b50600081511415611b9f576040517f08c379a0000000000000000000000000000000000000000000000000000000008152600401611b9690612801565b60405180910390fd5b805181602001fd5b63150b7a0260e01b7bffffffffffffffffffffffffffffffffffffffffffffffffffffffff1916817bffffffffffffffffffffffffffffffffffffffffffffffffffffffff191614915050611bfc565b600190505b949350505050565b60606040518060400160405280600c81526020017f68747470733a2f2f697066730000000000000000000000000000000000000000815250905090565b6060611c4c82610faa565b611c8b576040517f08c379a0000000000000000000000000000000000000000000000000000000008152600401611c8290612a01565b60405180910390fd5b6000611c95611c04565b90506000815111611cb55760405180602001604052806000815250611ce0565b80611cbf84611d56565b604051602001611cd0929190612739565b6040516020818303038152906040525b915050919050565b611cf28383611427565b611cff6000848484611a6d565b611d3e576040517f08c379a0000000000000000000000000000000000000000000000000000000008152600401611d3590612801565b60405180910390fd5b505050565b600080823b905060008111915050919050565b60606000821415611d9e576040518060400160405280600181526020017f30000000000000000000000000000000000000000000000000000000000000008152509050611efe565b600082905060005b60008214611dd0578080611db990612d3a565b915050600a82611dc99190612bbc565b9150611da6565b60008167ffffffffffffffff811115611e12577f4e487b7100000000000000000000000000000000000000000000000000000000600052604160045260246000fd5b6040519080825280601f01601f191660200182016040528015611e445781602001600182028036833780820191505090505b5090505b60008514611ef757600182611e5d9190612bed565b9150600a85611e6c9190612d83565b6030611e789190612b66565b60f81b818381518110611eb4577f4e487b7100000000000000000000000000000000000000000000000000000000600052603260045260246000fd5b60200101907effffffffffffffffffffffffffffffffffffffffffffffffffffffffffffff1916908160001a905350600a85611ef09190612bbc565b9450611e48565b8093505050505b919050565b828054611f0f90612cd7565b90600052602060002090601f016020900481019282611f315760008555611f78565b82601f10611f4a57805160ff1916838001178555611f78565b82800160010185558215611f78579182015b82811115611f77578251825591602001919060010190611f5c565b5b509050611f859190611f89565b5090565b5b80821115611fa2576000816000905550600101611f8a565b5090565b6000611fb9611fb484612ac1565b612a9c565b905082815260208101848484011115611fd157600080fd5b611fdc848285612c95565b509392505050565b6000611ff7611ff284612af2565b612a9c565b90508281526020810184848401111561200f57600080fd5b61201a848285612c95565b509392505050565b600081359050612031816133c9565b92915050565b600081359050612046816133e0565b92915050565b60008135905061205b816133f7565b92915050565b600081519050612070816133f7565b92915050565b600082601f83011261208757600080fd5b8135612097848260208601611fa6565b91505092915050565b600082601f8301126120b157600080fd5b81356120c1848260208601611fe4565b91505092915050565b6000813590506120d98161340e565b92915050565b6000602082840312156120f157600080fd5b60006120ff84828501612022565b91505092915050565b6000806040838503121561211b57600080fd5b600061212985828601612022565b925050602061213a85828601612022565b9150509250929050565b60008060006060848603121561215957600080fd5b600061216786828701612022565b935050602061217886828701612022565b9250506040612189868287016120ca565b9150509250925092565b600080600080608085870312156121a957600080fd5b60006121b787828801612022565b94505060206121c887828801612022565b93505060406121d9878288016120ca565b925050606085013567ffffffffffffffff8111156121f657600080fd5b61220287828801612076565b91505092959194509250565b6000806040838503121561222157600080fd5b600061222f85828601612022565b925050602061224085828601612037565b9150509250929050565b6000806040838503121561225d57600080fd5b600061226b85828601612022565b925050602083013567ffffffffffffffff81111561228857600080fd5b612294858286016120a0565b9150509250929050565b600080604083850312156122b157600080fd5b60006122bf85828601612022565b92505060206122d0858286016120ca565b9150509250929050565b6000602082840312156122ec57600080fd5b60006122fa8482850161204c565b91505092915050565b60006020828403121561231557600080fd5b600061232384828501612061565b91505092915050565b60006020828403121561233e57600080fd5b600082013567ffffffffffffffff81111561235857600080fd5b612364848285016120a0565b91505092915050565b60006020828403121561237f57600080fd5b600061238d848285016120ca565b91505092915050565b61239f81612c21565b82525050565b6123ae81612c33565b82525050565b60006123bf82612b23565b6123c98185612b39565b93506123d9818560208601612ca4565b6123e281612e70565b840191505092915050565b60006123f882612b2e565b6124028185612b4a565b9350612412818560208601612ca4565b61241b81612e70565b840191505092915050565b600061243182612b2e565b61243b8185612b5b565b935061244b818560208601612ca4565b80840191505092915050565b6000612464603283612b4a565b915061246f82612e81565b604082019050919050565b6000612487602683612b4a565b915061249282612ed0565b604082019050919050565b60006124aa601c83612b4a565b91506124b582612f1f565b602082019050919050565b60006124cd602483612b4a565b91506124d882612f48565b604082019050919050565b60006124f0601283612b4a565b91506124fb82612f97565b602082019050919050565b6000612513601983612b4a565b915061251e82612fc0565b602082019050919050565b6000612536602c83612b4a565b915061254182612fe9565b604082019050919050565b6000612559603883612b4a565b915061256482613038565b604082019050919050565b600061257c602a83612b4a565b915061258782613087565b604082019050919050565b600061259f602983612b4a565b91506125aa826130d6565b604082019050919050565b60006125c2602e83612b4a565b91506125cd82613125565b604082019050919050565b60006125e5602083612b4a565b91506125f082613174565b602082019050919050565b6000612608603183612b4a565b91506126138261319d565b604082019050919050565b600061262b602c83612b4a565b9150612636826131ec565b604082019050919050565b600061264e602083612b4a565b91506126598261323b565b602082019050919050565b6000612671602983612b4a565b915061267c82613264565b604082019050919050565b6000612694602f83612b4a565b915061269f826132b3565b604082019050919050565b60006126b7602183612b4a565b91506126c282613302565b604082019050919050565b60006126da603183612b4a565b91506126e582613351565b604082019050919050565b60006126fd600e83612b4a565b9150612708826133a0565b602082019050919050565b61271c81612c8b565b82525050565b600061272e8284612426565b915081905092915050565b60006127458285612426565b91506127518284612426565b91508190509392505050565b60006020820190506127726000830184612396565b92915050565b600060808201905061278d6000830187612396565b61279a6020830186612396565b6127a76040830185612713565b81810360608301526127b981846123b4565b905095945050505050565b60006020820190506127d960008301846123a5565b92915050565b600060208201905081810360008301526127f981846123ed565b905092915050565b6000602082019050818103600083015261281a81612457565b9050919050565b6000602082019050818103600083015261283a8161247a565b9050919050565b6000602082019050818103600083015261285a8161249d565b9050919050565b6000602082019050818103600083015261287a816124c0565b9050919050565b6000602082019050818103600083015261289a816124e3565b9050919050565b600060208201905081810360008301526128ba81612506565b9050919050565b600060208201905081810360008301526128da81612529565b9050919050565b600060208201905081810360008301526128fa8161254c565b9050919050565b6000602082019050818103600083015261291a8161256f565b9050919050565b6000602082019050818103600083015261293a81612592565b9050919050565b6000602082019050818103600083015261295a816125b5565b9050919050565b6000602082019050818103600083015261297a816125d8565b9050919050565b6000602082019050818103600083015261299a816125fb565b9050919050565b600060208201905081810360008301526129ba8161261e565b9050919050565b600060208201905081810360008301526129da81612641565b9050919050565b600060208201905081810360008301526129fa81612664565b9050919050565b60006020820190508181036000830152612a1a81612687565b9050919050565b60006020820190508181036000830152612a3a816126aa565b9050919050565b60006020820190508181036000830152612a5a816126cd565b9050919050565b60006020820190508181036000830152612a7a816126f0565b9050919050565b6000602082019050612a966000830184612713565b92915050565b6000612aa6612ab7565b9050612ab28282612d09565b919050565b6000604051905090565b600067ffffffffffffffff821115612adc57612adb612e41565b5b612ae582612e70565b9050602081019050919050565b600067ffffffffffffffff821115612b0d57612b0c612e41565b5b612b1682612e70565b9050602081019050919050565b600081519050919050565b600081519050919050565b600082825260208201905092915050565b600082825260208201905092915050565b600081905092915050565b6000612b7182612c8b565b9150612b7c83612c8b565b9250827fffffffffffffffffffffffffffffffffffffffffffffffffffffffffffffffff03821115612bb157612bb0612db4565b5b828201905092915050565b6000612bc782612c8b565b9150612bd283612c8b565b925082612be257612be1612de3565b5b828204905092915050565b6000612bf882612c8b565b9150612c0383612c8b565b925082821015612c1657612c15612db4565b5b828203905092915050565b6000612c2c82612c6b565b9050919050565b60008115159050919050565b60007fffffffff0000000000000000000000000000000000000000000000000000000082169050919050565b600073ffffffffffffffffffffffffffffffffffffffff82169050919050565b6000819050919050565b82818337600083830152505050565b60005b83811015612cc2578082015181840152602081019050612ca7565b83811115612cd1576000848401525b50505050565b60006002820490506001821680612cef57607f821691505b60208210811415612d0357612d02612e12565b5b50919050565b612d1282612e70565b810181811067ffffffffffffffff82111715612d3157612d30612e41565b5b80604052505050565b6000612d4582612c8b565b91507fffffffffffffffffffffffffffffffffffffffffffffffffffffffffffffffff821415612d7857612d77612db4565b5b600182019050919050565b6000612d8e82612c8b565b9150612d9983612c8b565b925082612da957612da8612de3565b5b828206905092915050565b7f4e487b7100000000000000000000000000000000000000000000000000000000600052601160045260246000fd5b7f4e487b7100000000000000000000000000000000000000000000000000000000600052601260045260246000fd5b7f4e487b7100000000000000000000000000000000000000000000000000000000600052602260045260246000fd5b7f4e487b7100000000000000000000000000000000000000000000000000000000600052604160045260246000fd5b6000601f19601f8301169050919050565b7f4552433732313a207472616e7366657220746f206e6f6e20455243373231526560008201527f63656976657220696d706c656d656e7465720000000000000000000000000000602082015250565b7f4f776e61626c653a206e6577206f776e657220697320746865207a65726f206160008201527f6464726573730000000000000000000000000000000000000000000000000000602082015250565b7f4552433732313a20746f6b656e20616c7265616479206d696e74656400000000600082015250565b7f4552433732313a207472616e7366657220746f20746865207a65726f2061646460008201527f7265737300000000000000000000000000000000000000000000000000000000602082015250565b7f4e465420616c7265616479206d696e7465640000000000000000000000000000600082015250565b7f4552433732313a20617070726f766520746f2063616c6c657200000000000000600082015250565b7f4552433732313a206f70657261746f7220717565727920666f72206e6f6e657860008201527f697374656e7420746f6b656e0000000000000000000000000000000000000000602082015250565b7f4552433732313a20617070726f76652063616c6c6572206973206e6f74206f7760008201527f6e6572206e6f7220617070726f76656420666f7220616c6c0000000000000000602082015250565b7f4552433732313a2062616c616e636520717565727920666f7220746865207a6560008201527f726f206164647265737300000000000000000000000000000000000000000000602082015250565b7f4552433732313a206f776e657220717565727920666f72206e6f6e657869737460008201527f656e7420746f6b656e0000000000000000000000000000000000000000000000602082015250565b7f45524337323155524953746f726167653a2055524920736574206f66206e6f6e60008201527f6578697374656e7420746f6b656e000000000000000000000000000000000000602082015250565b7f4552433732313a206d696e7420746f20746865207a65726f2061646472657373600082015250565b7f45524337323155524953746f726167653a2055524920717565727920666f722060008201527f6e6f6e6578697374656e7420746f6b656e000000000000000000000000000000602082015250565b7f4552433732313a20617070726f76656420717565727920666f72206e6f6e657860008201527f697374656e7420746f6b656e0000000000000000000000000000000000000000602082015250565b7f4f776e61626c653a2063616c6c6572206973206e6f7420746865206f776e6572600082015250565b7f4552433732313a207472616e73666572206f6620746f6b656e2074686174206960008201527f73206e6f74206f776e0000000000000000000000000000000000000000000000602082015250565b7f4552433732314d657461646174613a2055524920717565727920666f72206e6f60008201527f6e6578697374656e7420746f6b656e0000000000000000000000000000000000602082015250565b7f4552433732313a20617070726f76616c20746f2063757272656e74206f776e6560008201527f7200000000000000000000000000000000000000000000000000000000000000602082015250565b7f4552433732313a207472616e736665722063616c6c6572206973206e6f74206f60008201527f776e6572206e6f7220617070726f766564000000000000000000000000000000602082015250565b7f4e65656420746f20706179207570000000000000000000000000000000000000600082015250565b6133d281612c21565b81146133dd57600080fd5b50565b6133e981612c33565b81146133f457600080fd5b50565b61340081612c3f565b811461340b57600080fd5b50565b61341781612c8b565b811461342257600080fd5b5056fea26469706673582212205bc94232419fdce22e2cc095cb26ed690a734bf36e56cbd3cf3438564cbfe73564736f6c63430008020033",
  "linkReferences": {},
  "deployedLinkReferences": {}
}